:020000040800F2
:100000000000022019390008FD0600080107000859
:1000100005070008090700080D0700080000000098
:1000200000000000000000000000000011070008B0
:100030001507000800000000190700081D07000848
:100040006939000869390008693900086939000808
:100050006939000869390008E904000869390008AD
:1000600069390008693900086939000869390008E8
:1000700069390008693900086939000869390008D8
:1000800069390008693900086939000869390008C8
:1000900069390008693900086939000869390008B8
:1000A00069390008693900086939000869390008A8
:1000B000C504000869390008693900086939000871
:1000C0006939000869390008693900086939000888
:1000D0006939000869390008693900086939000878
:1000E0006939000869390008693900086939000868
:1000F0006939000869390008693900086939000858
:100100006939000869390008710400086939000874
:100110006939000869390008693900086939000837
:100120006939000869390008693900086939000827
:100130006939000869390008693900086939000817
:100140006939000869390008693900086939000807
:1001500069390008693900086939000869390008F7
:1001600069390008693900086939000869390008E7
:1001700069390008693900086939000869390008D7
:08018000693900086939000823
:1001880010B5054C237833B9044B13B10448AFF3C9
:1001980000800123237010BD5804002000000000D7
:1001A800A03C000808B5064B1BB106480649AFF34A
:1001B80000800648036813B1054B03B1984708BD92
:1001C80000000000A03C00085C040020540400204B
:1001D80000000000154B002B08BF134B9D46A3F5EC
:1001E800803A00218B460F461348144A121A03F02E
:1001F800F1FB0F4B002B00D098470E4B002B00D083
:1002080098470020002104000D000D48002802D066
:100218000C4803F0ABFC03F0B5FB2000290003F009
:1002280061FB03F09FFB00BF000008000000000016
:10023800000000000000000058040020D404002042
:10024800753B0008813B00082DE9F0070026114B9B
:10025800DFF844803246B1460A2403E09EB9013CE7
:10026800324614D0B1FBF3F505F130078754FFB2DD
:100278000132A8FB03AC302F03FB151100F80290E4
:100288004FEADC03EAD0013C06F10106EAD1BDE8F9
:10029800F007704700CA9A3BCDCCCCCC10B4074CC1
:1002A800D4E9002300211044D4E900238B4208BF7D
:1002B8008242F9D35DF8044B704700BF78040020F0
:1002C80010B4074CD4E9022300211044D4E90223D6
:1002D8008B4208BF8242F9D35DF8044B704700BFD8
:1002E8007804002070B5082082B0012101F0F8F9E7
:1002F80000244FF280030126694602250D48009329
:100308008DF804608DF805508DF806408DF807408B
:1003180001F0E6FB6946084800968DF804408DF820
:1003280005508DF806408DF8074001F0D9FB02B062
:1003380070BD00BF000C02400000024070B54FF4D1
:10034800407084B001F01CF801240025164E8DF889
:100358000150322368468DF800308DF802508DF830
:10036800034001F017F82146082001F0DDF94FF4A9
:10037800B463304601A90293ADF80450ADF80C50AF
:10038800ADF8065001F07CFD3046214602F070FAC7
:1003980030462146224602F049FA3046214601F00D
:1003A8001FFE04B070BD00BF000C004070B503789C
:1003B800054673B1074C23885B06FCD52E460548D5
:1003C80016F8011B02F07CFC2B786B780BB13546D4
:1003D800F1E770BD004400402DE9F043012187B0EA
:1003E80081464FF4003001F09FF91D4D1D4F01204B
:1003F800014601F075F900240C23022628464FF027
:100408000108694600938DF804608DF805608DF841
:1004180006408DF8078001F063FB28463146072225
:1004280001F0FEFB07222846032101F0F9FB08230F
:100438000DEB03013846ADF81230CDF80890ADF851
:100448000C40ADF80E40ADF81040ADF8144002F085
:100458007DFB3846414602F0FFFB07B0BDE8F0835C
:10046800000002400044004010B51248012102F08B
:10047800F3F900B910BD104C0E48012102F0F8F94B
:10048800D4E90223143243F10003C4E902234FF4F0
:100498007A720023D4E9020102F04EFF52EA030106
:1004A800E8D1D4E90023013243F10003C4E9002371
:1004B80010BD00BF000C00407804002008B54FF0C4
:1004C8008040012102F0C8F900B908BD4FF0804012
:1004D800012102F0CDF9BDE8084000F043BA00BFA1
:1004E80008B5012001F05CFA08B100F049FB0120D1
:1004F800BDE8084001F062BA2DE9F04786B0C0F3C4
:100508000745019000F062FE00200146714E00F0A0
:1005180041FE714800F030FE337873B16F4C238888
:100528005806FCD537466D4817F8011B02F0C8FB82
:10053800337873780BB13E46F1E700273846B94661
:10054800BDF80410664BDFF8A8810A2203E0DFB982
:10055800013A38461CD00DF1180EB1FBF3F486446D
:1005680006AE013004F1300C06440EF80CCC16F837
:100578000DEC06F80C9CA8FB03ACBEF1300F03FB96
:1005880014114FEADC03E2D0013A07F10107E2D186
:1005980003A800F0F1FD9DF80C307BB14F4C03AE81
:1005A80023885906FCD537464C4817F8011B02F03A
:1005B80087FB337873780BB13E46F1E700200121C1
:1005C800484E00F0E7FD484800F0D6FD337873B197
:1005D800424C23885A06FCD53746404817F8011B79
:1005E80002F06EFB337873780BB13E46F1E70027D3
:1005F8003846B94629460A22394BDFF8F48003E029
:10060800DFB9013A38461CD00DF1180EB1FBF3F4EE
:10061800864406AE013004F1300C06440EF80CCCCA
:1006280016F80DEC06F80C9CA8FB03ACBEF1300FD5
:1006380003FB14114FEADC03E2D0013A07F101078A
:10064800E2D103A800F098FD9DF80C307BB1234C53
:1006580003AE23885B06FCD53746204817F8011BF4
:1006680002F02EFB337873780BB13E46F1E7142D78
:1006780028D00BD80F2D1DD0102D04D11B484FF4B6
:10068800704101F0C9FA06B0BDE8F0871E2D09D007
:100698005B2DF8D115484FF4004101F0BDFA06B0C2
:1006A800BDE8F08711484FF4804101F0B5FA06B073
:1006B800BDE8F0870D484FF4005101F0ADFA06B0DF
:1006C800BDE8F08709484FF4805101F0A5FA06B05B
:1006D800BDE8F087583C0008703C00080044004022
:1006E80000CA9A3B643C00087C3C0008000C0240AD
:1006F800CDCCCCCC704700BFFEE700BFFEE700BF03
:10070800FEE700BFFEE700BF704700BF704700BFAD
:10071800704700BF704700BF384A394BD2F888107D
:10072800384841F47001C2F888101968002241F075
:10073800010119609A60196821F0847121F48031EF
:1007480019605860196882B021F480211960DA6054
:10075800009201921A6842F480321A601A4603E045
:10076800009BB3F5A06F09D0136803F4003301931D
:10077800009B01330093019B002BF1D0204B1B6899
:1007880013F4003318BF01230193019B012B05D0FB
:100798001A4B4FF000629A6002B07047184B1A4A21
:1007A800186C1A4940F080501864106820F4804092
:1007B80010609A689A609A689A609A6842F48052BF
:1007C8009A6059601A6842F080721A6019460B687C
:1007D8000B4A9B01FBD50E4B40F2027119609368DE
:1007E80023F003039360936843F0020393609368D4
:1007F80003F00C03082BFAD1CAE700BF00ED00E0B4
:1008080000380240103000240070004004364209CD
:10081800003C0240154B9A6802F00C02042A23D0CF
:10082800082A09D0124A1149124B8968C1F30311E9
:10083800595CCA401A617047586859685B68420237
:100848004CBF0D4A0A4A01F03F01C3F38813B2FBBB
:10085800F1F202FB03F2054B5B68C3F3014301337A
:100868005B00B2FBF3F2DEE7034ADCE70038024044
:100878000024F4000400002000127A0000000000A8
:100888000120F8B5014600F02BFF4FF4804001210C
:1008980000F056FF214B2248224C234F0125002609
:1008A80019461E71DE711D6001F01AF93146304695
:1008B80001F0DEF91D4B102218465A711D601E7199
:1008C8009D7101F00DF8284601F078F806232046BE
:1008D80023706570A670E57000F05CFD1C2204238F
:1008E8002846294622706370A670E57000F01CFF48
:1008F8002946472342F6E0624FF080407A603B8009
:100908003E817E8001F0B4FF204600F043FD394669
:100918004FF08040BDE8F84001F0B2BABC040020B6
:1009280000000240C8040020B0040020CC040020CD
:10093800704700BF014B1868704700BF980400203B
:10094800064A074900231371537193719360D3606A
:10095800137413600B808B70704700BF98040020DD
:10096800C404002038B54FF0804001210022144C07
:1009780001F05CFF4FF08040002101F031FB23794A
:10098800012B0BD00F4A002323716371A3712374C9
:1009980093701380A360E360236038BD0A4B094D50
:1009A80018682860FFF7A8FD002323716371A371FD
:1009B8002374AB702B80A360E360236038BD00BF55
:1009C80098040020C4040020AC04002038B51E4C54
:1009D800627953B21F2B00F0010009D0002B04DB11
:1009E800216800FA03F3194321600132627138BDAE
:1009F800236843EAC070C0F30743DA43D2B2B2EBCC
:100A0800106F20600BD0114A002323716371A3710A
:100A1800237493701380A360E360236038BD0B4D8B
:100A2800AB7028802868FFF767FD094A2B681360B8
:100A3800002323716371A3712374AB702B80A360AF
:100A4800E360236038BD00BF98040020C404002080
:100A5800AC040020F8B5464E3379012B0F4627D059
:100A680002F06CFB36A3D3E9002304460D4602F0DE
:100A780045FCE0B12046294633A3D3E9002302F020
:100A880047FCA0B1384602F059FB31A3D3E9002353
:100A980004460D4602F032FC48B1204629462EA3F2
:100AA800D3E9002302F034FC08B101233371F8BD07
:100AB80002F044FB00222F4B04460D4602F01EFCB8
:100AC80038B32046294600222B4B02F021FC00B304
:100AD800384602F033FB0022264B04460D4602F04E
:100AE8000DFC30B1204629460022234B02F010FCB1
:100AF80000BB204629461AA3D3E9002302F0FEFBD7
:100B080038B12046294618A3D3E9002302F000FC97
:100B180058B91A4A002333717371B37133749370DF
:100B28001380B360F3603360F8BD0120BDE8F8407E
:100B3800FFF74CBF0020BDE8F840FFF747BF00BFF4
:100B48000000000000F9C54000000000005EBA4047
:100B58000000000000F9B54000000000005EAA4057
:100B6800000000000081A0400000000000CE93407B
:100B78009804002000E0854000407A40C40400202A
:100B880070B52948012101F027F80446D8B9274D46
:100B9800A979012936D009B90123AB714FF08040FA
:100BA800012101F065FE01210A464FF0804001F065
:100BB8003DFE4FF08040012101F012FA4FF08043D2
:100BC80000225A6270BD4FF08044184B656A0022BB
:100BD80020460121ADB29D6001F028FE204600218B
:100BE80001F0FEF92046012101F042FE01210A46EA
:100BF800204601F01BFE2046012101F0F1F90023F7
:100C0800636270BD4FF080463046736A22469BB2DD
:100C1800EB6001F00BFE3046214601F0E1F9A868CF
:100C2800E968FFF717FFB9E70000024098040020C1
:100C380008B54FF08040012101F01AFE01210A4653
:100C48004FF0804001F0F2FD4FF08040012101F0AB
:100C5800C7F94FF0804300225A6208BD4FF0804325
:100C6800586A80B2704700BF08B54FF08040012134
:100C7800002201F0DBFD4FF080400021BDE8084074
:100C880001F0AEB9AFF3008038B5134C0546042126
:100C98002046012200F0B8FF204605F0010210218D
:100CA80000F0B2FF204605F00202202100F0ACFF60
:100CB800204605F00402802100F0A6FF204605F03A
:100CC80008024FF4807100F09FFF204604210022A3
:100CD800BDE8384000F098BF0004024070B5144CDD
:100CE80001222046042100F08FFF2046102100F049
:100CF80073FF20210646204600F06EFF802105463E
:100D0800204600F069FF800040EA45054FF48071F5
:100D1800204600F061FF3543EDB206460421204627
:100D2800002200F071FF45EAC600C0B270BD00BFE6
:100D3800000402402DE9F0473B4C3C4D0026294673
:100D48004FF4D87720462F602E71AE7100F0C8FEA0
:100D580020460221012200F057FF20463246012199
:100D680000F052FF01222046042100F04DFF2046EA
:100D7800102100F031FF20218146204600F02CFF91
:100D880080218046204600F027FF800040EA48087E
:100D98004FF48071204600F01FFF48EA09083246E8
:100DA80081460421204600F02FFF0122204604211D
:100DB80000F02AFF2046102100F00EFF2021824675
:100DC800204600F009FF5FFA88F848EAC908802140
:100DD8008146204600F000FF800040EA49094FF4B0
:100DE8008071204600F0F8FE49EA0A094FEA08181F
:100DF80082465FFA89F949EACA0908F0F0082046EC
:100E08003246042148EA090800F0FEFE5FFA88F835
:100E18002046012329462F60AE712B7100F060FE39
:100E28004046BDE8F08700BF00040240BC04002033
:100E38002DE9F8430221044600226148614D00F083
:100E4800E3FE01210A465E48260900F0DDFE5C4803
:100E58000421012200F0D8FE06F0010258481021B2
:100E680000F0D2FE06F002025548202100F0CCFE28
:100E780006F004025248802100F0C6FE06F008027F
:100E88004F484FF4807100F0BFFE4D480421002206
:100E980000F0BAFE4A480421012200F0B5FE04F031
:100EA80001024748102100F0AFFE04F00202444856
:100EB800202100F0A9FE04F004024148802100F03E
:100EC800A3FE04F008023E484FF4807100F09CFE37
:100ED8003B480421002200F097FE4FF4D876002406
:100EE800374838492E602C71AC7100F0F9FD344850
:100EF8000221012200F088FE22463148012100F03B
:100F080083FE01222E48042100F07EFE10212C4889
:100F180000F062FE20218046294800F05DFE802115
:100F28000746274800F058FE800040EA47074FF47C
:100F38008071234800F050FE47EA080722468046A1
:100F480004211F4800F060FE01221D48042100F022
:100F58005BFE10211A4800F03FFE20218146184808
:100F680000F03AFEFFB247EAC807802180461448DD
:100F780000F032FE800040EA48084FF480711048C3
:100F880000F02AFE48EA09083F0181465FFA88F81E
:100F980007F0F00748EAC90822460948042147EA49
:100FA800080700F031FEFFB20123054805492B71FF
:100FB800AC712E6000F094FD3B0690D4BDE8F88338
:100FC80000040240BC0400202DE9F8430321044634
:100FD80000225F485F4D260900F016FE5C48042198
:100FE800012200F011FE06F001025948102100F01C
:100FF8000BFE06F002025648202100F005FE06F01E
:1010080004025348802100F0FFFD06F00802504812
:101018004FF4807100F0F8FD4D480421002200F0E3
:10102800F3FD4B480421012200F0EEFD04F001021B
:101038004748102100F0E8FD04F00202444820214E
:1010480000F0E2FD04F004024148802100F0DCFDDC
:1010580004F008023E484FF4807100F0D5FD3C488A
:101068000421002200F0D0FD4FF4D876002438483F
:1010780038492E602C71AC7100F032FD34480221E1
:10108800012200F0C1FD22463148012100F0BCFDDB
:1010980001222F48042100F0B7FD10212C4800F050
:1010A8009BFD202180462A4800F096FD80210746B6
:1010B800274800F091FD800040EA47074FF480710F
:1010C800234800F089FD47EA0807224680460421A4
:1010D8001F4800F099FD01221D48042100F094FDED
:1010E80010211B4800F078FD20218146184800F0A7
:1010F80073FDFFB247EAC80780218046144800F014
:101108006BFD800040EA48084FF48071104800F0F9
:1011180063FD48EA09083F0181465FFA88F807F04D
:10112800F00748EAC90822460948042147EA08079F
:1011380000F06AFDFFB20123054806492B71AC7126
:101148002E6000F0CDFC3B0690D4BDE8F88300BFCC
:1011580000040240BC0400200830C00038B500F08C
:10116800F8000D46FFF730FF0024285D0134FFF733
:101178005FFE082CF9D138BD10B50446007828B9AF
:1011880006E0FFF755FE14F8010F08B10D28F8D155
:1011980010BD00BF00EB811060F07F00C0B2FFF708
:1011A80013BF00BF01EB821210B562F07F03044643
:1011B800D8B2FFF709FF207828B906E0FFF738FE14
:1011C80014F8010F08B10D28F8D110BD0120FFF760
:1011D800FBBE00BF013970B5CCB263B2002B054627
:1011E8000EDB012606FA03F32B4204F1FF340CBF91
:1011F80030203120E4B2FFF71BFE63B2002BF1DA96
:1012080070BD00BF1820FFF7DFBE00BF1C20FFF72E
:10121800DBBE00BF30B5022083B0012100F060FAC8
:101228004F4B504800240122194640F2B7155A7115
:101238001A719C71DC711D608DF80340019400F0F7
:101248004FFC2146474800F0E5FC4648072100F0DE
:10125800D9FC0194019B444A934205D8019B013370
:101268000193019B9342F9D900238DF803309DF82F
:101278000330022B98BF47F22F5433D83948042142
:10128800012200F0C1FC37481021012200F0BCFC0B
:1012980034482021022200F0B7FC32488021002285
:1012A80000F0B2FC2F484FF48071002200F0ACFC33
:1012B8002C480421002200F0A7FC00230193019B85
:1012C800A34205D8019B01330193019BA342F9D99D
:1012D8009DF803300133DBB28DF803309DF80330FD
:1012E800022BCBD91F480421012200F08DFC1D4898
:1012F8001021002200F088FC1A482021022200F068
:1013080083FC18488021002200F07EFC15484FF429
:101318008071002200F078FC00221248042100F0BD
:1013280073FC00230193019B41F26F72934205D82D
:10133800019B01330193019B9342F9D92820FFF7C0
:1013480043FE0820FFF740FE0120FFF73DFE062080
:10135800FFF73AFE0C20FFF737FE03B030BD00BFA1
:10136800BC04002000040240DF930400D03C0008C5
:10137800000000205404002058040020D404002059
:1013880040F0BF60024B40F40030D860704700BFA7
:1013980000ED00E0C378F0B463B90378194A59093D
:1013A800203103F01F03012000FA03F342F8213033
:1013B800F0BC7047144B4778DA6885780378114990
:1013C800D243C2F30222C2F104040F26E4B207FAA0
:1013D80004F446FA02F2E4B22A40224303F16043DD
:1013E80003F561431201D2B283F800230378012088
:1013F80003F01F025B0900FA02F241F82320F0BC57
:10140800704700BF00E100E000ED00E021F060411E
:1014180021F07F01014B08439860704700ED00E020
:10142800044B1A6919B922EA000018617047104381
:101438001861704700ED00E0044B1A6804280CBFDF
:1014480042F0040222F004021A60704710E000E043
:101458000A4B0B481A68002142F001021A60996091
:101468001A6822F0847222F480321A6058601A686E
:1014780022F480221A60D960704700BF0038024009
:1014880010300024024B00221A701870704700BFF9
:101498000238024082B000230B4A019313689B0371
:1014A8000CD4019B01330193019BB3F5A06FF5D1D7
:1014B800054B1868C0F3404002B07047019B0133E8
:1014C8000193019BF4E700BF00380240034B1A6800
:1014D80022F0F80242EAC000186070470038024063
:1014E800014B1860704700BF00004742064B0022BE
:1014F80001281A701A7005D0042802D105221A7022
:10150800704770471870704770380240014B186078
:10151800704700BF800E474230B4029C064D40EA37
:1015280004605B080143013B41EA821242EA03433B
:101538006B6030BC704700BF00380240014B186038
:10154800704700BF600047420907034B41EA80101B
:10155800C3F88400704700BF00380240014B186090
:10156800704700BF68004742014B1860704700BFD2
:101578004C004742034B9A6822F0EC62114308433F
:101588009860704700380240034B9A6822F078420E
:10159800114308439860704700380240034B9A682B
:1015A80022F0030210439860704700BF00380240E1
:1015B800024B986800F00C00704700BF00380240EA
:1015C800034B9A6822F0F00210439860704700BFFE
:1015D80000380240034B9A6822F4E05210439860A6
:1015E800704700BF00380240034B9A6822F46042FB
:1015F80042EAC00098607047003802401F4A93686A
:1016080003F00C03042B10B41BD0082B1CD01C4B6C
:1016180003601A491B4A8C68C4F30314145DE34041
:1016280043608C68C4F38224145D23FA04F4846054
:1016380089685DF8044BC1F34231525CD340C36002
:101648007047114B0360E4E75468516852686302BD
:101658004CBF0D4B0A4B01F03F01C2F38812B3FB9C
:10166800F1F303FB02F3054A5268C2F30142013267
:101678005200B3FBF2F30360CBE700BF003802402F
:101688000024F4001800002000127A0000F44073CF
:10169800B3F5407F09D1084A916820F0704321F4DE
:1016A800F81123F440730B439360034B1A6FC0F394
:1016B8000B0010431867704700380240014B186050
:1016C800704700BF3C0E4742014B1860704700BF8F
:1016D800400E4742014B1860704700BF5C0147420B
:1016E800044B1A6B19B922EA0000186370471043BB
:1016F8001863704700380240044B5A6B19B922EA44
:101708000000586370471043586370470038024020
:10171800044B9A6B19B922EA00009863704710438A
:101728009863704700380240044B1A6C19B922EAD2
:10173800000018647047104318647047003802406E
:10174800044B5A6C19B922EA0000586470471043D8
:101758005864704700380240044B1A6919B922EAE4
:101768000000186170471043186170470038024044
:10177800044B5A6919B922EA0000586170471043AE
:101788005861704700380240044B9A6919B922EA37
:101798000000986170471043986170470038024014
:1017A800044B1A6A19B922EA0000186270471043FC
:1017B8001862704700380240044B5A6A19B922EA85
:1017C8000000586270471043586270470038024062
:1017D800044B1A6D19B922EA0000186570471043C6
:1017E8001865704700380240044B5A6D19B922EA4F
:1017F800000058657047104358657047003802402C
:10180800044B9A6D19B922EA000098657047104395
:101818009865704700380240044B1A6E19B922EADD
:101828000000186670471043186670470038024079
:10183800044B5A6E19B922EA0000586670471043E3
:101848005866704700380240044B1A7819B922EAE2
:101858000000187070471043187070470D38024028
:101868004309012B0BD0022B094B0CBF1B6F5B6F7D
:1018780000F01F0023FA00F000F001007047044B4D
:101888001B6800F01F0023FA00F000F00100704709
:1018980000380240024B5A6F42F080725A67704714
:1018A80000380240034BDB6818420CBF00200120BF
:1018B800704700BF00380240014B1870704700BFE6
:1018C8000E380240044B054900221A605A609A609B
:1018D800DA605961704700BF003C0140FFFF7F009C
:1018E800837970B42BB31D4B01681E680279457962
:1018F800CC4326401E605E6802F1804202F59E32AB
:1019080034405C6014682143116002689868D143D0
:1019180008409860D868102D01EA0001D96014D0F9
:1019280005F1804303F59E3370BC19680A431A60B9
:1019380070470379016803F1804303F59E3370BC57
:101948001A6822EA01021A6070479968114399607F
:10195800D9680A43DA6070BC704700BF003C014098
:1019680000230C224271036003718371704700BF2A
:10197800024B1A6910431861704700BF003C0140D0
:10198800034B5B6918420CBF00200120704700BF61
:10199800003C0140014B5861704700BF003C0140CA
:1019A800054B1A685B69034004D010420CBF002045
:1019B8000120704718467047003C0140014B5861B0
:1019C800704700BF003C014008B53C4B984224D00A
:1019D8003B4B98422BD03B4B984232D03A4B9842E3
:1019E80039D03A4B984240D0394B984247D0394B7E
:1019F80098424ED0384B984255D0384B984200D038
:101A080008BD4FF480700121FFF7A6FE4FF48070E7
:101A18000021BDE80840FFF79FBE01200146FFF7FF
:101A28009BFE01200021BDE80840FFF795BE02207B
:101A38000121FFF791FE02200021BDE80840FFF7D1
:101A48008BBE04200121FFF787FE04200021BDE89A
:101A58000840FFF781BE08200121FFF77DFE08201E
:101A68000021BDE80840FFF777BE10200121FFF7ED
:101A780073FE10200021BDE80840FFF76DBE20204E
:101A88000121FFF769FE20200021BDE80840FFF78B
:101A980063BE40200121FFF75FFE40200021BDE822
:101AA8000840FFF759BE80200121FFF755FE80202E
:101AB8000021BDE80840FFF74FBE00BF000002400C
:101AC8000004024000080240000C024000100240DE
:101AD8000014024000180240001C0240002002408E
:101AE80000222DE9F00713460E6801274FF003087E
:101AF80004E00133102B02F102022ED007FA03F49E
:101B080004EA0605A542F4D1D0F8009091F804C083
:101B180008FA02F4E44304EA0909C0F80090D0F88E
:101B280000900CFA02FA0CF1FF3C5FFA8CFC4AEACE
:101B38000909BCF1010FC0F8009011D9C56891F8E6
:101B480007C02C40C460C5680CFA02F401332C436A
:101B5800102BC46002F10202D0D1BDE8F007704733
:101B6800D0F808A091F8059091F806C004EA0A0A8E
:101B7800C0F808A0D0F808A009FA02F949EA0A0949
:101B8800C0F80890D0F8049029EA05054560456832
:101B98000CFA03FC1FFA8CFC4CEA05054560CDE7FE
:101BA80000234FF6FF720260037143718371C371A2
:101BB800704700BF82B04FF480330193019B0B4301
:101BC8000193019BC361C161019BC361C369019317
:101BD800C369019302B07047036919420CBF002022
:101BE80001207047006980B2704700BF43691942FD
:101BF8000CBF002001207047406980B2704700BFC9
:101C080001837047418370470AB941837047018354
:101C1800704700BF4161704743695940416170474F
:101C2800CB0800EB830001F0070110B48900046AB7
:101C38000F238B4024EA03030362036A5DF8044B15
:101C48008A4013430362704708B54FF4804001216E
:101C5800FFF7B2FD4FF480400021BDE80840FFF7D0
:101C6800ABBD00BF014B1860704700BF0038014092
:101C780001F0FC0303F1804303F59C3301F00301F9
:101C880010B489009C680F228A4024EA02029A60F4
:101C98009A685DF8044B884002439A60704700BF19
:101CA800014B1860704700BFDC002742014B1860E9
:101CB800704700BF00042742024B186AC0F3002097
:101CC800704700BF0038014008B5604B984235D0D6
:101CD800B0F1804F3CD05E4B984243D05D4B984268
:101CE8004AD05D4B984251D05C4B984258D05C4BDF
:101CF80098425FD05B4B984266D05B4B98426DD060
:101D08005A4B984276D05A4B98427FD0594B9842BA
:101D180000F08880584B984200F08E80574B9842CC
:101D280000D008BD4FF480700121FFF739FD4FF452
:101D380080700021BDE80840FFF732BD0120014650
:101D4800FFF73AFD01200021BDE80840FFF734BD48
:101D580001200146FFF724FD01200021BDE80840CD
:101D6800FFF71EBD02200121FFF71AFD0220002106
:101D7800BDE80840FFF714BD04200121FFF710FD5E
:101D880004200021BDE80840FFF70ABD0820012112
:101D9800FFF706FD08200021BDE80840FFF700BD59
:101DA80010200121FFF7FCFC10200021BDE80840AD
:101DB800FFF7F6BC20200121FFF7F2FC20200021CC
:101DC800BDE80840FFF7ECBC02200121FFF7F4FC56
:101DD80002200021BDE80840FFF7EEBC4FF4803038
:101DE8000121FFF7E9FC4FF480300021BDE80840ED
:101DF800FFF7E2BC4FF400300121FFF7DDFC4FF4A0
:101E080000300021BDE80840FFF7D6BC4FF4802021
:101E18000121FFF7D1FC4FF480200021BDE80840E4
:101E2800FFF7CABC40200121FFF7BAFC402000217F
:101E3800BDE80840FFF7B4BC80200121FFF7B0FCE3
:101E480080200021BDE80840FFF7AABC000001403F
:101E58000004004000080040000C00400010004052
:101E680000140040000401400040014000440140CB
:101E78000048014000180040001C004000200040BD
:101E8800234A0388904270B49BB212D002F5806254
:101E980090420ED0B0F1804F0BD0A2F58032904224
:101EA80007D002F58062904203D002F5806290422A
:101EB80003D14A8823F070031343164A90421ED078
:101EC80002F5806290421AD00E894D680C8823F47E
:101ED800407302F56C429BB2334390420380C56263
:101EE800048506D00C4B984203D00123838270BC32
:101EF80070478B7A03860123838270BC7047038006
:101F08000B884A68C26203850123838270BC7047CC
:101F180000000140001000400004014000234FF081
:101F2800FF3242600380038143808372704700BFA1
:101F380001858282704700BF038823F070031B0469
:101F48001B0C19430180704741627047C16270479A
:101F5800406A7047008D80B2704700BF038829B976
:101F680023F002031B041B0C038070479BB243F051
:101F780002030380704700BF038829B923F00403D4
:101F88001B041B0C038070479BB243F004030380BF
:101F9800704700BF038829B923F080031B041B0C7A
:101FA800038070479BB243F080030380704700BFF3
:101FB800038823F008031B041B0C038003889BB2CF
:101FC80019430180704700BF038823F440731B0442
:101FD8001B0C038003889BB219430180704700BF24
:101FE800038829B923F001031B041B0C03807047E5
:101FF8009BB243F001030380704700BFF0B4048C28
:10200800B1F802C08F890E881B4D24F00104240406
:10201800240C0484028C8488038B22F0020223F0AF
:10202800730312044CEA07071B04120CBFB21B0C03
:10203800A84247EA0202A4B243EA06030AD005F519
:102048008065A84206D0896884800383F0BC416318
:1020580002847047B1F80EC04F8A0D8A8E8822F02C
:10206800080242EA0C023D4324F4407422F00402C0
:10207800ADB232432C43E6E700000140F0B4048CD3
:10208800B1F80CC04F880E881F4D24F010042404AA
:10209800240C0484028C8488038B22F0200212040E
:1020A80023F4E643120C1B0442EA0C121B0C42EA0E
:1020B800071243EA0623A84292B2A4B29BB20AD0FE
:1020C80005F58065A84206D0896884800383F0BC42
:1020D800816302847047CD89B1F810C08F884E8A19
:1020E80022F0800292B242EA051224F440644FF6CC
:1020F800BF75154044EA8C0445EA071244EA860491
:1021080092B2A4B2E0E700BF00000140F0B4048C32
:10211800B1F80CC04F880E881E4D24F48074240436
:10212800240C0484028C8488838B22F400721204A9
:10213800120C23F0730342EA0C221B0442EA072222
:102148001B0CA84292B2A4B243EA06030AD005F5D2
:102158008065A84206D0896884808383F0BCC16307
:1021680002847047CD89B1F810C08F884E8A22F456
:10217800006292B242EA052224F440544FF6FF3539
:10218800154044EA0C1445EA072244EA061492B2C0
:10219800A4B2E0E700000140F0B4048CB1F80CC030
:1021A8004F880E88164D24F480542404240C04848B
:1021B800028C8488838B22F40052120423F4E643B1
:1021C800120C1B0442EA0C321B0C42EA073243EAA7
:1021D8000623A84292B2A4B29BB20AD005F5806544
:1021E800A84206D0896884808383F0BC0164028495
:1021F80070470D8A24F4804444EA8514A4B2F1E7B8
:102208000000014000230380438083808360838132
:10221800C381038243827047038C10B401249BB2AC
:102228008C4023EA040421F00803048418307BB1AD
:102238000439C1F34E0148F6FF730C5823400B5084
:1022480012020B585DF8044B92B21A430A507047B9
:1022580049084FF68F7344582340435043585DF85C
:10226800044B1A434250704741637047816370477B
:10227800C163704701647047038B23F070031B042C
:102288001B0C194301837047038B23F4E0431B04A1
:102298001B0C43EA01218BB203837047838B23F025
:1022A80070031B041B0C194381837047838B23F431
:1022B800E0431B041B0C43EA01218BB28383704764
:1022C800038B23F008031B041B0C1943018370477D
:1022D800038B23F400631B041B0C43EA01218BB21C
:1022E80003837047838B23F008031B041B0C1943DB
:1022F80081837047838B23F400631B041B0C43EA20
:1023080001218BB283837047038B23F004031B04E2
:102318001B0C194301837047038B23F480631B0450
:102328001B0C43EA01218BB203837047838B23F094
:1023380004031B041B0C194381837047838B23F40C
:1023480080631B041B0C43EA01218BB28383704713
:10235800038B23F080031B041B0C19430183704774
:10236800038BC3F30E0343EA01218BB20383704747
:10237800838B23F080031B041B0C19438183704754
:10238800838BC3F30E0343EA01218BB28383704727
:10239800038C23F002031B041B0C194301847047B0
:1023A800038C23F008031B041B0C1943018470479A
:1023B800038C23F020031B041B0C43EA01118BB28E
:1023C80003847047038C23F080031B041B0C43EA2F
:1023D80001118BB203847047038C23F400731B0430
:1023E8001B0C43EA01218BB203847047038C23F44E
:1023F80000631B041B0C43EA01218BB20384704762
:10240800038C23F400531B041B0C43EA01318BB2E9
:1024180003847047038C10B401248C409BB223EAD8
:1024280004030384038C5DF8044B8A4013439BB276
:1024380003847047038C10B404248C409BB223EAB5
:1024480004030384038C5DF8044B8A4013439BB256
:10245800038470470B88F0B4002B32D0042B58D07B
:10246800082B038C00F083804E888F880D89CC88D8
:1024780023F480510904090C0184828B038C22F413
:10248800407223F4005312055B04120D5B0C42EA00
:10249800072243EA063342EA05329BB243F48053EB
:1024A80092B282830384838B23F440631B041B0C46
:1024B8008383838B9BB243EA04239BB28383F0BC60
:1024C8007047028C8D880E894C88C98822F00102D9
:1024D8001204120C0284028B038C92B222F0F302D3
:1024E80023F00A0342EA06121B0444F0010492B2E4
:1024F8001B0C23432A4302830384038B23F00C031E
:102508001B041B0C0383038B9BB20B430383F0BC9C
:102518007047028C4E888C880F89C98822F0100277
:102528001204120C0284038B058C23F440731B05E0
:102538001B0DADB243EA073225F0A00545EA0613A4
:1025480092B242EA04229BB243F0100392B2028391
:102558000384038B23F440631B041B0C0383038B4A
:102568009BB243EA01239BB20383F0BC704723F478
:1025780080731B041B0C4D888C880E89CA880384C1
:10258800818B038C89B29BB221F0F30123F4206381
:1025980041EA061143EA052389B29BB243F48073EA
:1025A800214381830384838B23F00C031B041B0CBE
:1025B8008383838B9BB21343838380E700230122A9
:1025C800828003804380C38003817047F0B44D88C4
:1025D8008C880B88B1F808C0028CC988002D14BFFC
:1025E80000260226012C14BF01270227002B4BD0FE
:1025F80022F010021204120C0284038B028C23F4C2
:1026080040731B051B0D92B243EA0C3322F0A00263
:102618009BB242EA051543EA0424ADB2A4B245F0E0
:10262800100504830584038B23F440631B041B0CEF
:102638000383038B9BB243EA01239BB20383038C7E
:1026480023F001031B041B0C0384028B038C92B23E
:1026580022F0F3029BB242EA0C1C23F00A0343F077
:1026680001031FFA8CFC1E434CEA07070783068404
:10267800038B23F00C031B041B0C0383038B9BB2FB
:1026880019430183F0BC704722F001021204120CB6
:102698000284038B028C9BB223F0F30322F00A021C
:1026A80043EA0C13120445F001059BB2120C1C43BB
:1026B8002A4304830284028B22F00C021204120CB7
:1026C8000283038B9BB20B430383028C22F010021C
:1026D8001204120C0284038B028C23F440731B0532
:1026E8001B0D92B243EA0C3322F0A0029BB242F0D7
:1026F800100243EA072742EA061607830684038B7B
:1027080023F440631B041B0C0383038B9BB243EA33
:10271800012189B20183F0BC704700BF406B70474C
:10272800806B7047C06B7047006C7047038B23F059
:102738000C031B041B0C0383038B9BB219430183FB
:10274800704700BF038B23F440631B041B0C0383F7
:10275800038B9BB243EA01218BB20383704700BF0E
:10276800838B23F00C031B041B0C8383838B9BB28A
:1027780019438183704700BF838B23F440631B0494
:102788001B0C8383838B9BB243EA01218BB2838327
:10279800704700BFB1F802C00B888A89F0B48F88EF
:1027A800CE880D894C894CEA03033B4333432B43C2
:1027B800234313439BB2A0F84430F0BC704700BFDA
:1027C8000023038043808380C38003814381838106
:1027D800704700BFB0F8443021B9C3F30E03A0F826
:1027E800443070476FEA43436FEA53439BB2A0F803
:1027F80044307047838829B923F004031B041B0C59
:10280800838070479BB243F004038380704700BF06
:10281800838829B923F001031B041B0C83807047AC
:102828009BB243F001038380704700BF83899BB24A
:102838001AB923EA010181817047194381817047E0
:1028480081827047038A19420CBF0020012070471B
:10285800C94389B201827047038A828911EA030059
:1028680092B203D011420CBF00200120704700BF74
:10287800C94389B2018270470A43A0F848207047CB
:1028880083899BB21AB923EA0101818170471943F0
:1028980081817047838829B923F008031B041B0C26
:1028A800838070479BB243F008038380704700BF62
:1028B800038923F007031B041B0C0381704700BF27
:1028C800038923F070031B041B0C1943018103893E
:1028D8009BB243F007030381704700BF602930B4FF
:1028E800048C24D024F001042404240C0484058BD3
:1028F800048CADB225F0F305A4B245F0010524F02F
:102908000A0445EA031344F001049BB222430383FB
:102918000284038923F070031B041B0C0B430381FF
:1029280003899BB243F00703038130BC704724F04E
:1029380010042404240C0484048B058C24F44074AF
:102948002405ADB2240D25F0A00544F4807445F0AB
:10295800100544EA033345EA02129BB292B203839C
:102968000284D6E710B4048942EA0323E4B223437D
:102978009BB21943018103895DF8044B23F0770367
:102988001B041B0C43F077030381704710B40489C0
:1029980042EA0323E4B223439BB21943018103892A
:1029A8005DF8044B9BB243F480430381704700BF3A
:1029B800038923F070031B041B0C19430181704722
:1029C800838823F070031B041B0C838083889BB2CD
:1029D80019438180704700BF038923F007031B0454
:1029E8001B0C038103899BB219430181704700BF07
:1029F800038923F080031B041B0C038103899BB20A
:102A080019430181704700BF10B40489E4B221431F
:102A18000A4342EA03239CB204815DF8044B7047E1
:102A280070B40589048B068C24F4407424F00304E4
:102A3800B6B226F0220625F00705240432432D04F9
:102A4800240C2D0C44F4807442EA0313294344F007
:102A580001049EB201810483068470BC704700BFE4
:102A6800838829B923F080031B041B0C83807047DB
:102A78009BB243F080038380704700BFA0F85010DA
:102A8800704700BF08B52B4B984219D02A4B984283
:102A980020D02A4B984229D0294B984232D0294B32
:102AA80098423BD0284B984200D008BD20200121F5
:102AB800FEF782FE20200021BDE80840FEF77CBE1C
:102AC80010200121FEF778FE10200021BDE8084003
:102AD800FEF772BE4FF400300121FEF761FE4FF49D
:102AE80000300021BDE80840FEF75ABE4FF48020B0
:102AF8000121FEF755FE4FF480200021BDE8084073
:102B0800FEF74EBE4FF400200121FEF749FE4FF4B8
:102B180000200021BDE80840FEF742BE4FF48010B7
:102B28000121FEF73DFE4FF480100021BDE808406A
:102B3800FEF736BE00100140004400400048004047
:102B4800004C00400050004000140140F0B50D4614
:102B5800018AEF882E89AB88AA8989B2044621F4B4
:102B68004051394368892182A189334389B203439B
:102B780021F4B05121F00C019BB20B43A381A38A2D
:102B88009BB223F44073134385B0A3826846FEF7D3
:102B980035FD1D4B9C4229D003F580639C4225D00E
:102BA800029BA2892968A08912B2002A03EB830339
:102BB800B4BF4900890003EB8303B3FBF1F2134967
:102BC80000B2A1FB02535B096425002803FB152210
:102BD8004FEA03130CDB12013232A1FB0251C1F39D
:102BE80043110B439BB2238105B0F0BD039BD8E78B
:102BF800D2003232A1FB0201C1F342110B439BB256
:102C0800238105B0F0BD00BF001001401F85EB51C6
:102C180000234FF416510C22016042818380C38047
:102C280003818381704700BF30B40A884D888C883F
:102C3800038AC9882A4322430A439BB292B223F4E7
:102C480070631343038230BC704700BF00230380C6
:102C580043808380C3807047838929B923F4005354
:102C68001B041B0C838170479BB243F40053838180
:102C7800704700BF038B03F47F430383038B9BB22E
:102C880019430183704700BF838919B9C3F30E0341
:102C9800838170476FEA43436FEA53439BB2838152
:102CA800704700BF838A29B923F400631B041B0CF7
:102CB800838270479BB243F400638382704700BFEE
:102CC800C1F30801818070478088C0F3080070470D
:102CD800038A23F00F031B041B0C0382038A9BB295
:102CE80019430182704700BF838929B923F0020381
:102CF8001B041B0C838170479BB243F00203838142
:102D0800704700BF838923F400631B041B0C838175
:102D180083899BB219438181704700BF038A23F0DE
:102D280020031B041B0C0382038A9BB219430182F4
:102D3800704700BF038A29B923F480431B041B0C86
:102D4800038270479BB243F480430382704700BFFD
:102D580083899BB243F0010383817047838A29B931
:102D680023F008031B041B0C838270479BB243F0BB
:102D780008038382704700BF038BDBB20383038B96
:102D88009BB243EA01210183704700BF838A29B9B6
:102D980023F020031B041B0C838270479BB243F073
:102DA80020038382704700BF838A29B923F0100368
:102DB8001B041B0C838270479BB243F01003838271
:102DC800704700BF838A23F004031B041B0C838213
:102DD800838A9BB219438182704700BF838A29B9CD
:102DE80023F002031B041B0C838270479BB243F041
:102DF80002038382704700BF838A9BB21AB923EA11
:102E080001018182704719438182704701F01F03D5
:102E180010B4C1F342110124A14204FA03F310D003
:102E280002290CBF1030143004682AB924EA0303BD
:102E380003605DF8044B7047234303605DF8044B5F
:102E480070470C30F0E700BF038819420CBF002020
:102E580001207047C94389B20180704710B4C1F39B
:102E68004213012401F01F02A34204FA02F217D010
:102E7800022B0CBF038A838A9BB21340028892B24A
:102E880053B1090A012303FA01F111420CBF0020D2
:102E980001205DF8044B704718465DF8044B7047F5
:102EA80083899BB21340E9E7090A012303FA01F178
:102EB800C94389B20180704781F0004102E000BF38
:102EC80083F0004330B54FEA41044FEA430594EAE2
:102ED800050F08BF90EA020F1FBF54EA000C55EA1D
:102EE800020C7FEA645C7FEA655C00F0E2804FEAEE
:102EF8005454D4EB5555B8BF6D420CDD2C4480EAD0
:102F0800020281EA030382EA000083EA010180EAFF
:102F1800020281EA0303362D88BF30BD11F0004F4D
:102F28004FEA01314FF4801C4CEA113102D0404283
:102F380061EB410113F0004F4FEA03334CEA1333BE
:102F480002D0524263EB430394EA050F00F0A780D6
:102F5800A4F10104D5F1200E0DDB02FA0EFC22FAD1
:102F680005F2801841F1000103FA0EF2801843FAC5
:102F780005F359410EE0A5F120050EF1200E012AB6
:102F880003FA0EFC28BF4CF0020C43FA05F3C018F4
:102F980051EBE37101F0004507D54FF0000EDCF16D
:102FA800000C7EEB00006EEB0101B1F5801F1BD316
:102FB800B1F5001F0CD349085FEA30004FEA3C0C1A
:102FC80004F101044FEA445212F5800F80F09A8010
:102FD800BCF1004F08BF5FEA500C50F1000041EB14
:102FE800045141EA050130BD5FEA4C0C404141EB18
:102FF800010111F4801FA4F10104E9D191F0000F3F
:1030080004BF01460020B1FA81F308BF2033A3F1C1
:103018000B03B3F120020CDA0C3208DD02F1140CB8
:10302800C2F10C0201FA0CF021FA02F10CE002F1F3
:103038001402D8BFC2F1200C01FA02F120FA0CFCEC
:10304800DCBF41EA0C019040E41AA2BF01EB045135
:10305800294330BD6FEA04041F3C1CDA0C340EDC33
:1030680004F11404C4F1200220FA04F001FA02F376
:1030780040EA030021FA04F345EA030130BDC4F134
:103088000C04C4F1200220FA02F001FA04F340EA29
:103098000300294630BD21FA04F0294630BD94F0DA
:1030A800000F83F4801306BF81F480110134013DC1
:1030B8004EE77FEA645C18BF7FEA655C29D094EA32
:1030C800050F08BF90EA020F05D054EA000C04BFB0
:1030D8001946104630BD91EA030F1EBF002100209B
:1030E80030BD5FEA545C05D14000494128BF41F03A
:1030F800004130BD14F580043CBF01F5801130BD9E
:1031080001F0004545F0FE4141F470014FF0000028
:1031180030BD7FEA645C1ABF194610467FEA655CD9
:103128001CBF0B46024650EA013406BF52EA03357B
:1031380091EA030F41F4002130BD00BF90F0000F69
:1031480004BF0021704730B54FF4806404F13204A5
:103158004FF000054FF0000150E700BF90F0000F5E
:1031680004BF0021704730B54FF4806404F1320485
:1031780010F0004548BF40424FF000013EE700BF55
:1031880042004FEAE2014FEA31014FEA02701FBFE5
:1031980012F07F4393F07F4F81F06051704792F0B7
:1031A800000F14BF93F07F4F704730B54FF4607431
:1031B80001F0004521F0004120E700BF50EA01027C
:1031C80008BF704730B54FF000050AE050EA010229
:1031D80008BF704730B511F0004502D5404261EB99
:1031E80041014FF4806404F132045FEA915C3FF4DA
:1031F800DCAE4FF003025FEADC0C18BF03325FEA73
:10320800DC0C18BF033202EBDC02C2F1200300FA27
:1032180003FC20FA02F001FA03FE40EA0E0021FA4C
:1032280002F11444C1E600BF4FF0FF3C06E000BFC6
:103238004FF0010C02E000BF4FF0010C4DF804CD37
:103248004FEA410C7FEA6C5C4FEA430C18BF7FEAF7
:103258006C5C1BD001B050EA410C0CBF52EA430C25
:1032680091EA030F02BF90EA020F0020704710F1A5
:10327800000F91EA030F58BF994208BF90422CBF34
:10328800D8176FEAE37040F0010070474FEA410C2D
:103298007FEA6C5C02D150EA013C07D14FEA430C4B
:1032A8007FEA6C5CD6D152EA033CD3D05DF8040BBC
:1032B800704700BF8446104662468C4619466346EE
:1032C80000E000BF01B5FFF7B7FF002848BF10F1C5
:1032D800000F01BD4DF808EDFFF7F4FF0CBF01200A
:1032E80000205DF808FB00BF4DF808EDFFF7EAFF86
:1032F80034BF012000205DF808FB00BF4DF808ED41
:10330800FFF7E0FF94BF012000205DF808FB00BF35
:103318004DF808EDFFF7CEFF94BF012000205DF8BF
:1033280008FB00BF4DF808EDFFF7C4FF34BF0120CC
:1033380000205DF808FB00BF4BB942B9002908BF5F
:10334800002802D04FF0FF31084600F03BB882B0A9
:10335800EC462DE9005000F01DF8DDF804E002B05D
:103368000CBC70472DE97043069E14461D468046E6
:10337800894600F029F804FB01F300FB0533A4FBA0
:1033880000451D44B8EB040469EB0505C6E9004592
:10339800BDE870832DE97043069E14468046894631
:1033A8001D4600F05DF900FB05F504FB0153A0FB89
:1033B80004451D44B8EB040469EB0505C6E900455E
:1033C800BDE87083704700BF00292DE9F00FC0F2F7
:1033D8009F800024002BC0F29680154606460F46B3
:1033E800002B3ED18A4257D9B2FA82F34BB1C3F1CE
:1033F800200201FA03F720FA02F29D40174300FA6F
:1034080003F6290CB7FBF1F2330C01FB127CA8B2CE
:1034180043EA0C4700FB02F3BB4209D97F1902F1CA
:10342800FF3C80F00181BB4240F2FE80023A2F440B
:10343800FF1AB7FBF1F3B6B201FB137146EA01417B
:1034480000FB03F0884208D9491903F1FF3780F0DF
:10345800ED80884240F2EA80023B43EA02420023C0
:1034680003E08B420AD900231A461046194614B1C4
:10347800404261EB4101BDE8F00F7047B3FA83F8B1
:10348800B8F1000F40F084808B4202D3824200F2F0
:10349800DE8000230122E8E712B90123B3FBF2F52D
:1034A800B5FA85F2002A39D17F1B280C1FFA85FC52
:1034B8000123B7FBF0F1320C00FB117742EA074712
:1034C8000CFB01F2BA4207D97F1901F1FF3802D289
:1034D800BA4200F2C1804146BF1AB7FBF0F2B6B259
:1034E80000FB127046EA00400CFB02FC844507D939
:1034F800401902F1FF3702D2844500F2AB803A4608
:1035080042EA0142B1E7E443524263EB430364E712
:10351800404261EB41014FF0FF345BE79540C2F157
:10352800200327FA03F1280C26FA03F39740B1FB8E
:10353800F0F81F433B0C00FB18111FFA85FC43EA07
:1035480001410CFB08F38B4206FA02F608D9491927
:1035580008F1FF3279D28B4277D9A8F102082944C1
:10356800C91AB1FBF0F3BFB200FB131147EA0147D8
:103578000CFB03F2BA4207D97F1903F1FF3160D27D
:10358800BA425ED9023B2F44BF1A43EA084390E788
:10359800C8F1200203FA08FC25FA02F343EA0C0CEE
:1035A8004FEA1C4921FA02F301FA08F720FA02F25D
:1035B800B3FBF9F1174309FB11333A0C1FFA8CFBE3
:1035C80042EA03430BFB01FA9A4505FA08F008D9C9
:1035D80013EB0C0301F1FF3235D29A4533D9023986
:1035E8006344CAEB0303B3FBF9F209FB1233BFB21E
:1035F80047EA03470BFB02F9B94508D917EB0C0753
:1036080002F1FF331BD2B94519D9023A674442EA9D
:103618000145A5FB0001C9EB07078F424FF00003E6
:103628000AD305D02A4620E7624601E73B4614E75D
:1036380006FA08F68642F5D26A1E002315E71A46EE
:10364800E5E70B46A0E71146CBE7904688E74346F7
:1036580042460AE7023A53E702392F443CE700BFE3
:103668002DE9F00F144605460E46002B43D18A4239
:1036780053D9B2FA82F757B1C7F1200620FA06F6F5
:1036880001FA07F302FA07F41E4300FA07F5210CC2
:10369800B6FBF1F22B0C01FB1267A0B243EA074616
:1036A80000FB02F3B34209D9361902F1FF3780F063
:1036B800F680B34240F2F380023A2644F61AB6FB8B
:1036C800F1F3ADB201FB136145EA014100FB03F0E0
:1036D800884208D9091903F1FF3680F0E280884250
:1036E80040F2DF80023B43EA0242002310461946BB
:1036F800BDE8F00F70478B424AD8B3FA83F6002E24
:103708004DD18B4202D3824200F2D680002301229F
:1037180010461946BDE8F00F704712B90124B4FBF2
:10372800F2F4B4FA84F2002A7CD1091B260CA7B261
:103738000123B1FBF6F02A0C06FB101142EA014105
:1037480007FB00F28A4207D9091900F1FF3C02D2AF
:103758008A4200F2C3806046891AB1FBF6F2ADB224
:1037680006FB121145EA014507FB02F7AF4208D9EB
:103778002C1902F1FF3180F09680A74240F2938025
:10378800023A42EA004210461946BDE8F00F704777
:1037980000231A4610461946BDE8F00F7047C6F1D7
:1037A800200522FA05F4B3401C434FEA144821FAD5
:1037B80005F301FA06F720FA05F5B3FBF8FC2F43E9
:1037C80008FB1C333D0C1FFA84FA45EA03430AFB45
:1037D8000CF9994502FA06FB04D91B190CF1FF32C2
:1037E8006DD39446C9EB0303B3FBF8F508FB153317
:1037F800BFB247EA03470AFB05F8B84504D93F19A1
:1038080005F1FF3361D31D4645EA0C4CACFB0B2395
:10381800C8EB07079F424FF0000549D345D06246E1
:103828002B4663E79440C2F1200321FA03FC260CDF
:1038380020FA03F301FA02F5BCFBF6F843EA0501A6
:103848000B0C06FB18CCA7B243EA0C4C07FB08F399
:10385800634500FA02F509D91CEB040C08F1FF32A4
:103868003AD2634538D9A8F10208A444C3EB0C0C3A
:10387800BCFBF6F389B206FB13CC41EA0C4107FB0B
:1038880003F28A4207D9091903F1FF3022D28A428A
:1038980020D9023B2144891A43EA084349E73A46BA
:1038A8000CE733461FE70A466BE7B0409042B6D2B2
:1038B8000CF1FF32002319E73346324616E79945E3
:1038C8008FD9ACF1020C23448CE7B8459BD9023D53
:1038D800274499E70346DEE79046C7E702382144C4
:1038E8003AE700BF08B5FCF717FF4FF41650FCF78E
:1038F80073FDFCF7F7FCFCF721FDFCF7C1FFFDF7B2
:1039080089FC0248FDF738FCFEE700BF883C000848
:10391800002100F004B80D4B5B58435004310C48AB
:103928000C4B42189A42FFF4F6AF0B4A00F003B86A
:10393800002342F8043B094B9A42FFF4F9AFFCF725
:10394800EBFE00F01FF8FFF7CDFF7047D03C0008F2
:10395800000000205404002058040020D404002053
:10396800FFF7FEBF08B50021044600F087F8044BB6
:103978001868C36B03B19847204600F09BF900BF55
:103988009C3C000870B50F4E0F4D761BB61007D043
:10399800043D0024013455F8043F9847A642F9D164
:1039A8000A4E0B4D761B00F079F9B61008D0043D8D
:1039B8000024013455F8043F9847A642F9D170BD58
:1039C80070BD00BFC43C0008C43C0008CC3C0008E3
:1039D800C43C0008F0B4840743D0541E002A3ED0EB
:1039E800CDB2034603E0621E002C38D0144603F81B
:1039F800015B9A07F7D1032C2AD9CDB245EA0525F0
:103A08000F2C45EA054515D9A4F110073F0903F124
:103A1800100606EB07161A46156055609560D560C6
:103A28001032B242F8D104F00F040137032C03EB33
:103A380007130DD91E462246043A032A46F8045BAA
:103A4800FAD8221F22F003020432134404F00304BC
:103A58002CB1C9B21C4403F8011BA342FBD1F0BC32
:103A6800704714460346C6E7024B13B1024800F0FC
:103A78007DB8704700000000813B00082DE9F04F39
:103A8800384B1B6885B003F5A472019302900F466A
:103A98000392019BD3F84881B8F1000F1CD0DDF8E0
:103AA8000CB04FF00109DA46D8F804305C1E11D486
:103AB80008F188059E1C05EB830508EB860677B19F
:103AC800EB6FBB420BD0013C631CA5F10405A6F1CA
:103AD8000406F4D1244A7ABB05B0BDE8F08FD8F8C3
:103AE800042056F8043C013AA24216BF0022C8F846
:103AF800044046F8042C002BE5D0D8F88811D8F8F3
:103B080004B009FA04F20A4210D0D8F88C110A421B
:103B18000ED1029855F8041C9847D8F804305B4534
:103B2800B7D1DAF800304345CDD0B2E79847F4E78B
:103B380055F8040C9847F0E7D8F804306BB9D8F872
:103B4800003063B14046CAF80030AFF30080DAF8BD
:103B58000080B8F1000FA7D1BEE7D8F80030C24600
:103B68009846F6E79C3C000800000000014600204B
:103B78000246034600F018B838B5094D094C641BD5
:103B8800A41018BF05EB840505D0013C55F8043D89
:103B98009847002CF9D1BDE8384000F085B800BF3F
:103BA800CC3C0008D03C0008F0B5274C2668D6F875
:103BB800484185B00746002C41D065681F2D1EDDA1
:103BC800224818B94FF0FF3005B0F0BD4FF4C87067
:103BD800039102920193AFF300800399029A019B2B
:103BE80004460028EED0D6F84851256000206060D1
:103BF8000546C6F84841C4F88801C4F88C013FB9A5
:103C0800AB1C00200135656044F8231005B0F0BDF9
:103C180004EB85004FF0010CC0F88820D4F88861C7
:103C28000CFA05F21643022FC4F88861C0F808316F
:103C3800E6D1D4F88C311A43C4F88C21E0E706F5B4
:103C4800A674C6F84841B8E79C3C0008000000008C
:103C58000D0A416464726573733A20000D0A436F5C
:103C68006D6D616E643A2000416464726573733AE5
:103C780020000000436F6D6D616E643A2000000003
:103C880048656C6C6F20576F726C642100000000EF
:103C9800430000002800002000000000F8B500BF25
:103CA800F8BC08BC9E467047F8B500BFF8BC08BC15
:043CB8009E4670476D
:083CBC0020C5FF7F010000009C
:083CC400713A0008AD0100088F
:043CCC008901000862
:103CD00000000000000000000000000001020304DA
:103CE0000607080900A24A040000000001020304BC
:103CF0000102030406070809000000001403002065
:103D00007C030020E403002000000000000000000D
:103D100000000000000000000000000000000000A3
:103D2000000000000000000000000000983C0008B7
:103D30000000000000000000000000000000000083
:103D40000000000000000000000000000000000073
:103D50000000000000000000000000000000000063
:103D60000000000000000000000000000000000053
:103D70000000000000000000000000000000000043
:103D80000000000000000000000000000000000033
:103D90000000000000000000000000000000000023
:103DA00001000000000000000E33CDAB34126DE6C0
:103DB000ECDE05000B000000000000000000000029
:103DC00000000000000000000000000000000000F3
:103DD00000000000000000000000000000000000E3
:103DE00000000000000000000000000000000000D3
:103DF00000000000000000000000000000000000C3
:044120002800002053
:044124000000000097
:04000005080039199D
:00000001FF
